100235P001      IHF  20180822100235          J84824 MN  VAR0102030406070809              JJJ00NNNNNN000000    GRUIADRT                              N001MINPAUT100235P001@sftp.infotorg.no   NJNJNN                       N I   utvikler: serge                                                                                                                                                                 
100235P001      IAF000000001000000001000000001000000001000000001000000001000000000000000000000000000000000000000000000                                                                                                                                                                                                                                                                                          
100235P001      RAF20180822121345100001000010000000000010000000100000001000000000000000000000005000000100000000000000000000000000000000000000000000000000000000000000000000000000000000000000000000000000000000000000000000001000000000000000000000000000000000000000000000000000000000000000000000000000000000000000000000000000000000000000000000000000000000000000000000000000000000000000000000000 000000000
100235P001      RPFGRUIhungtest1       01AAJJ*04027933985Huynh Hung                Ullagerveien 1                05850301Huynh                                             Hung                                                                                                Oslo                Oslo                119811014M I       1920050713                                            197900256200      2000000001
100235P001      RPFADRThungtest1       01AAJJ*                                                                                                                   20150122H0402Ullagerveien             215020001      00000000019880211000                              0217020220150122O000000000000000                              000000004311                                                    3000000001
